:020000041000EA
:100000000000102011B201104DB201104FB20110CA
:1000100051B2011053B2011055B20110000000009E
:1000200000000000000000000000000057B20110B6
:1000300059B20110000000005BB201109D70001069
:100040005FB2011061B20110FD800010C18000108C
:1000500067B201101D80001029800010358000104B
:100060006FB2011071B2011073B2011075B20110BC
:1000700077B20110D17A0010857F0010B57F001093
:100080007FB2011081B2011083B2011085B201105C
:1000900087B2011089B201108BB201108DB201102C
:1000A000FD770010057800100D78001095B2011052
:1000B00041800010498000105180001059800010CC
:1000C0009FB20110A1B20110E97F0010A5B201108A
:1000D000DD7A0010A9B20110ABB20110ADB201106F
:1000E000AFB20110B1B20110B3B20110B5B201103C
:1000F000B7B20110B9B20110BBB20110BDB201100C
:10010000BFB20110C1B20110C3B20110C5B20110DB
:10011000C7B20110C9B20110CBB20110CDB20110AB
:10012000CFB20110D1B2011015780010D5B2011074
:10013000D7B20110D9B20110DBB20110DDB201104B
:10014000DFB20110E1B20110E3B20110E5B201101B
:1001500061800010698000107180001079800010AB
:10016000818000108980001091800010998000101B
:10017000A1800010A9800010B1800010B98000108B
:10018000FFB201100348044B834202D0034B03B17A
:1001900018477047B4180020B41800200000000071
:1001A000054806490B1AD90F01EBA301491002D0EB
:1001B000034B03B118477047B4180020B41800204F
:1001C0000000000010B5064C237843B9FFF7DAFFB2
:1001D000044B13B10448AFF300800123237010BD1A
:1001E000B818002000000000ECDA021008B5044B3B
:1001F0001BB104490448AFF30080BDE80840CFE7D5
:1002000000000000BC180020ECDA02100B4A08B510
:100210000346106828B10A4903448B4207D813608B
:1002200008BD08480649106003448B42F7D91BF00B
:100230008FFA0C2303604FF0FF3008BDD418002064
:1002400000F00F2098AF02206FF01000704700BF41
:100250006FF01000704700BF4FF080439B6803F4BD
:100260006063B3F5806F1BD0B3F5C06F0DD0B3F5ED
:10027000006F19D0B3F5206F14D00C4A0C4B1178D5
:100280000C4AA12998BF134601E04FF4FA534FF0EE
:10029000804209499268C2F38212D3400B607047D2
:1002A000064BF4E7064BF2E7064BF0E7D8180020C0
:1002B00080F0FA02005A6202DC18002000366E015B
:1002C00000127A00000E27074FF0804200201368CA
:1002D00023F4403343F400331360704708B501F052
:1002E000FBFE4D494D4B4E4A08709A6062B6D3F8FA
:1002F000882042F47002C3F88820BFF34F8FBFF309
:100300006F8F042001F0B2FDFFF7A6FF4FF0804190
:10031000444A0B68012043F400330B60C2F8000725
:10032000D2F80031D903FBD5D2F800313D4943F072
:100330000103C2F80031D1F80031DB03FBD5032003
:1003400001F066FD042001F063FD052001F060FD71
:10035000062001F05DFD072001F05AFD082001F0A4
:1003600057FD092001F054FD0A2001F051FD0D2038
:1003700001F04EFD0E2001F04BFD0F2001F048FD75
:10038000102001F045FD112001F042FD122001F086
:100390003FFD132001F03CFD142001F039FD172032
:1003A00001F036FD1C2001F033FD1D2001F030FD71
:1003B0001E2001F02DFD1F2001F02AFD212001F05B
:1003C00027FD222001F024FD232001F021FD24201F
:1003D00001F01EFD272001F01BFD282001F018FD73
:1003E000292001F015FD2A2001F012FD2B2001F03B
:1003F0000FFD2C2001F00CFD2D2001F009FD2E2019
:1004000001F006FD2F2001F003FD342001F000FD76
:1004100007F08AFB08BD00BFD818002000ED00E0FF
:100420000000001000A00240014800F005B800BF25
:100430000080024000F00EB8044A054B801A18BF35
:100440004FF0FF30002243F8202070470080024028
:10045000E01800200F2870B516D800EB80000D4E74
:100460008400335983B10C48012101F0BDFC0546DD
:1004700068B933193051DB6807481D605A685A6003
:1004800001F0C0FC284670BD6FF00205FAE76FF07E
:100490000505F7E7E8180020E418002001460148A8
:1004A00000F008B8009002400146014800F020B872
:1004B00000900240A1F18451B1F5803F0ED2034675
:1004C00010B441F23420074C0749084A18641C64F0
:1004D000002019645DF8044B1A6470476FF0020045
:1004E000704700BFA35C7F3A204FE3A1C1B20896DA
:1004F000A1F18451B1F5803F3DBF034B036400205F
:100500006FF00200704700BFEFBEADDE10B5064CC5
:10051000217831B905484FF400721BF05BFD0123CF
:100520002370002010BD00BF281E0020281A0020C4
:100530002DE9F04344682CB3154F164E164DDFF8E5
:100540005CE0DFF85C80DFF85C904FF0000C12E0BC
:10055000734519D0434519D04B450CBF03234FF0C9
:10056000FF330CEB431346F8231045F823206408AF
:100570000CF1010C06D0E307F9D50368BB42E7D1C3
:100580000023EEE7BDE8F0830123EAE70223E8E772
:1005900000800040281A0020281C00200090004005
:1005A00000A0004000B0004070B5054640B10128F1
:1005B00023D0022823D00328124E18BF002600E0C3
:1005C000114E304600F0AEF804460146304600F0C9
:1005D000ABF88CB10D4E0E4B06EBC51603EBC515F3
:1005E000E30703D52B680BB130689847640806F120
:1005F000040605F10405F3D170BD064EE1E7064E91
:10060000DFE700BF00B0004000800040281C002051
:10061000281A00200090004000A0004010B50446B9
:1006200030B1012804D0022802D0032807D12620A7
:1006300001F004FC2046BDE81040FFF767BF6FF0F3
:10064000020010BD38B5D0E90052017A04462846B0
:1006500000F0D8F848B9637A042B04D8DFE803F037
:100660002434425006006FF0020038BD2B6E6268E1
:1006700023EA02032B666B6E13436B66D5F8B83022
:1006800023EA0203C5F8B830A17A284600F0A2F8A0
:100690000028EAD1237A002BE7D06268E17A284665
:1006A000BDE8384000F0D4B82B6E626823EA02033C
:1006B0002B666B6E23EA02036B66D5F8B83023EA2B
:1006C0000203C5F8B830DFE72B6E626813432B6670
:1006D0006B6E23EA02036B66D5F8B8301343C5F896
:1006E000B830D1E72B6E626823EA02032B666B6E8B
:1006F00013436B66D5F8B8301343C5F8B830C3E779
:100700002B6E62681343D3E700F014B800F016B8FC
:1007100000F016B800F016B800F018B800F052B8A3
:1007200000F052B800F054B800F050B8FFF700BF26
:10073000FFF73ABF406A0840704700BFC161704789
:100740000162704780690840704700BF0368042950
:1007500034D8DFE801F00C1A282D03004268D96D67
:100760001143D965996A0A4300209A62704742682A
:10077000D96A002021EA0201D962D96D21EA020179
:10078000D965996A0A439A6270474168DA6A00201B
:100790000A43DA62DA6D22EA0102DA659A6A22EA2B
:1007A00001029A6270474268D96A00201143E3E768
:1007B0004168DA6A002022EA0102EAE76FF00200EB
:1007C000704700BF81637047C163704781647047A1
:1007D000006C704769B1012907D1D0F8C030002101
:1007E0001A43C0F8C020084670476FF0020108465F
:1007F0007047D0F8C03023EA0202C0F8C020084693
:10080000704700BF0346006B104318635A6003290A
:100810001BD8DFE801F018100902C3F88820002077
:10082000DA67DA669A607047C3F888200020DA67D2
:100830001A679A6070471A615A6000201A67DA676F
:10084000C3F8882070475A61F6E76FF002007047DE
:10085000032929D8DFE801F0280F021CD0F8B030B6
:1008600023EA0203C0F8B030D0F8B4301A43C0F81D
:10087000B42000207047D0F8B0301343C0F8B03037
:10088000D0F8B43023EA0202C0F8B4200020704748
:10089000D0F8B0301343C0F8B030D0F8B4301A43B9
:1008A000C0F8B42000207047D0F8B03023EA02032B
:1008B000C0F8B030D0F8B43023EA0202C0F8B42057
:1008C00000207047134B984270B504460D461646FB
:1008D0000FD0114B984219D11C2001F0AFFA0F48EC
:1008E000FFF7B0FE324629462046BDE8704000F0D2
:1008F0007BB80D2001F0A2FA0948FFF7A3FE3246AB
:1009000029462046BDE8704000F06EB86FF0020046
:1009100070BD00BF00D0014000E00140AC96021065
:10092000A0960210034678B1B1F5806F0CD25AB987
:100930007F29426403D9426C42F4004242645A6CFB
:1009400011430020596470476FF00200704700BFE8
:10095000104B984210B504460DD00F4B984215D15C
:10096000202001F05DFB1C2001F052FA2046BDE87A
:10097000104000F0A9B8102001F052FB0D2001F04A
:1009800047FA2046BDE8104000F09EB86FF0020024
:1009900010BD00BF00D0014000E00140034B994270
:1009A00001D800F0E1B86FF01000704740420F002E
:1009B00000F03AB900F054B900F064B900F070B931
:1009C00000F086B900F09CB900F0A2B900F0A8B917
:1009D00000F0AAB900F014BA00F0E4BA00F0F2BADC
:1009E000082100F047BD00BF2DE9F041002861D08B
:1009F000324B984288461646044642D0304FB842A1
:100A00000CBF01274FF0FF3710212046FFF7E0FF12
:100A1000054610B12846BDE8F081236843F0010384
:100A200023602046FFF7CEFF2046FFF7CDFF0221CF
:100A30002046FFF7D3FF06212046FFF7CDFFB8F190
:100A4000000F20D023681D4A43F002039442236024
:100A50002ED01B4884420CBF01244FF0FF34194BA9
:100A600003EB44140122626003EB471300226FF092
:100A700001011A61C3E902115A611A762846BDE8DC
:100A8000F0810027C0E7314642462046FFF74AFF83
:100A90000A4B9C4206D00A498C420CBF4FF0010819
:100AA0004FF0FF38074B03EB481100224A60DBE7A9
:100AB0002C46D4E74FF0FF35ACE700BF00D0014033
:100AC00000E00140441E0020002844D0F8B5234B2C
:100AD0009842044633D0224DA8420CBF01254FF066
:100AE000FF3500212160E1606161A3681D4EA360B4
:100AF000236923616F0106EB4515E1612022216224
:100B000028466162A1621BF065FA2046FFF75AFF92
:100B10002046FFF759FF2B7E0BB90020F8BDFFF7E9
:100B200083FCA86800280CDA3E44F0680028F4DB57
:100B3000FFF780FC6FF00103F3600020F8BD002593
:100B4000CFE73E44FFF776FCF0686FF00103002822
:100B5000AB60E2DBECE74FF0FF30704700D00140C4
:100B600000E00140441E002000284FD010B4294A64
:100B7000A1F574236FF41074234493421AD3264BC7
:100B800099423ED8254B1B685B08B3FBF1F14A083C
:100B900011F0010F02F1FF3408BF2246B2F5007FC9
:100BA0002FD274B3C4F3080444635DF8044B82632A
:100BB000FFF7FEBE194B1A4A1B685B08B3FBF1F145
:100BC0004FEA410CA2FB0C4CA2FB01425208C907A0
:100BD00058BF02F1FF324FEA5C0C0F2A0CF1FF3CC8
:100BE0000FDCBCF10F0F0CDC12025FFA8CFC92B22E
:100BF0004CEA0202C26302680A4942F400420260FF
:100C0000C3E76FF002005DF8044B70474FF0FF3010
:100C1000704700BF009F240040E13300DC18002033
:100C2000ABAAAAAA801A060003681B040CD5C26BE3
:100C3000C36BD0B20230C3F307230344074A1068E2
:100C40004008B0FBF3F07047436B806BC3F30803BD
:100C5000C0F3080003440233F0E700BFDC180020B3
:100C6000034658B1006B1A6B10F0010016BF42F03A
:100C7000020242F0010200201A6370474FF0FF3079
:100C8000704700BF48B1036B43F004030363036B79
:100C900013F00403FBD1184670474FF0FF30704744
:100CA00098B191B17AB1002301F1FF3C06E0C16A2D
:100CB0000133C9B29A420CF8031004D04168890785
:100CC000F5D518467047104670474FF0FF30704713
:100CD00098B191B17AB1002301F1FF3C06E00133F4
:100CE0009A421CF80310C9B2C16204D04168C90617
:100CF000F5D518467047104670474FF0FF307047E3
:100D0000C36943F08003C361C3691B06FCD4704709
:100D1000436A43F080034362436A1B06FCD4704776
:100D200081600261704700BF002865D0036843F00E
:100D300001032DE9F04103600768036843F4806311
:100D40000E46044607F480670360002943D000255F
:100D50002BE001F00FF8236823F0800323600A20C2
:100D600001F008F8236813F400784FF00A002BD143
:100D700001F000F8236843F0800323600A2000F0AC
:100D8000F9FF23689A054FF00A001DD500F0F2FF25
:100D9000236843F0400323600A2000F0EBFF236840
:100DA000DB0525D40135AE4215D00A2000F0E2FF64
:100DB000236823F0400323600A2000F0DBFF236850
:100DC000D9054FF00A00C4D52368013543F0C003AC
:100DD000AE422360E9D16FF008001FB9236823F405
:100DE00080632360236823F001032360BDE8F08162
:100DF0004046002FF6D1F1E74FF0FF30704700BFBB
:100E00002DE9F041D0E900437F2B00F2C580644B0F
:100E10009C42054604D003F580539C4240F0B980C3
:100E20002368980740F1B28007226FF07F41204687
:100E3000FFF7CCFD2046FFF7C7FD2046FFF7C2FDB8
:100E40006A690023E360636142BBEA686B685B0028
:100E5000E362236B43F0010300262363202704E0B1
:100E6000A36813F4FE4F11D1EA68964219D2A36821
:100E70009906F5D5A968921B31442046FFF7A0FDDD
:100E8000A760A36813F4FE4F0644EDD0EE60204641
:100E9000FFF792FD6FF00800BDE8F081EA68002AD4
:100EA000D4D1002211212046FFF790FD6B69002B61
:100EB0004DD0B3F5807F88BF002323622046FFF723
:100EC00079FD266B16F00206FBD16B686A695B0040
:100ED00043F00103E362002A39D010274FF00108E4
:100EE0001DE0A36813F4FE4329D1A26812F0010F9C
:100EF0006A6912D0B24210D2911BB1F5807F8CBFCB
:100F0000236221626B68216B5B0043F0010341F0B7
:100F100002012163C4F80880E362964217D2A368F5
:100F200013F0110FDDD02969921B31442046FFF7E1
:100F300045FDA760A36813F4FE430644D5D06E6157
:100F40002046FFF739FD6FF00800BDE8F081AB697E
:100F50008BB1236B43F002032363A368DB07FCD54B
:100F60004123A360A36813F4FE4F0CBF00206FF071
:100F70000800BDE8F081236B43F004032363A368FA
:100F80005A06FCD5A368DB07E7D5E9E76FF0060052
:100F9000EFE76FF00200ECE76FF01000E9E700BF49
:100FA00000D001408269D2B28A42034607D3C269A7
:100FB00022F4706242EA01210020D96170476FF08B
:100FC000020070478269C2F307228A42034607D3B0
:100FD000426A22F4706242EA01210020596270479D
:100FE0006FF00200704700BF2DE9F84F054628B1A9
:100FF000012800F08A8000239B68FFDEA14CDFF807
:101000008CB2A368DBF8008013F4FE4F40F0E88058
:10101000DFF87C92D8F80C2059F82560DFF874A22C
:10102000B2425AF82570114610D8D8F81430BB4295
:1010300027D9A16811F0110F17D1B24200F0B48086
:1010400049F825604AF82570BDE8F88FA36899062D
:101050007FD4E36843F02003E360D8F814309F4264
:10106000EED2A16811F0110FE7D0D8F81010DA1BFA
:1010700039442046FFF7A2FC1023D8F80C10A360D7
:1010800007448E42DCD1D8F814309F4240F08C8067
:101090000023E3606361A368A360D8F81830226975
:1010A0002261002B40F0B780236B43F004032363DD
:1010B000A36813F4FE4F734B00F0B2809C4200F023
:1010C000C68003F580539C420CBF01234FF0FF33D1
:1010D0005BF82300C369002B00F0B2806FF00801B9
:1010E00098470023E3606361A268A260654A2169B2
:1010F0002161944205D0644B9C420CBF01234FF008
:10110000FF3300224BF823209EE75F4CDFF87CB1D1
:10111000A368DBF8048013F4FE4F3FF479AFA368B3
:10112000A360236923610026E66020466661FFF71D
:1011300043FCDBF80400C369002B00F09B806FF0D8
:1011400008019847E6606661A368A360236923618C
:101150005CE0D8F80810921B31442046FFF730FCC1
:10116000D8F80C2006442023B242A3603FF671AFAA
:10117000E36823F02003E3607FF46FAFD8F8143006
:10118000002B82D0226B42F0020222630122A26075
:10119000E268BB4242F00102E2607FF676AFA268ED
:1011A00012F0110F7FF461AFA268D2077FF548AF4C
:1011B0000122A2602FB9D8F80420520042F00102A7
:1011C000E262DA1BB2F5807F88BF002222629F4272
:1011D000E36834BF43F0110323F01103E3602FE70A
:1011E000A368A360236923612046E5606561FFF77A
:1011F000E3FBDBF80000C36913B16FF00801984707
:10120000E5606561A368A3602369236100234BF84F
:101210002530BDE8F88F236B43F00203236347E7D3
:101220009C4221D003F580539C420CBF01234FF018
:10123000FF335BF82300C36913B10021984750E7DF
:10124000E3606361A368A3602369236153E7DBF86C
:101250000000C369002B7FF441AFE3606361A268C3
:10126000A260226922614CE7DBF80000C369002B11
:10127000E3D1F2E7E3606361A368A36023692361BC
:10128000C4E700BF00D0014000E00140341E002050
:101290003C1E00202C1E00202DE9F041D0F80880D3
:1012A0001F4618F4FE4F4FF0000304460E46154645
:1012B0003B6050D06FF008033B6011B13A46042107
:1012C000B0476FF07F43A36007232361636A43F055
:1012D00080036362636A1906FCD4E36943F0800308
:1012E000E361E06910F08000FBD15F4B9C42C5E9EF
:1012F000000005D05D4884420CBF01204FF0FF3054
:101300005B4B002243F820202B686A6892073ED48A
:10131000180702D518F0080F6ED103F00103002B57
:1013200066D018F0400F00F0818000233B601EB1B2
:101330003A4604212046B0474B4A002340219442BC
:10134000A160C5E900334FD0484B9C420CBF01233C
:101350004FF0FF3348E01368DA067FD518F0100F1E
:1013600006D01EB1002202212046B0471023A36000
:101370002369D90706D51EB1002206212046B047B1
:10138000012323612B6848F220021342BDD018F0DC
:10139000200F06D01EB1002203212046B047202393
:1013A000A36023699B0706D51EB1002205212046B4
:1013B000B0470223236118F4004F1BD000233B6089
:1013C0001EB13A4604212046B047274A00234FF475
:1013D00000419442A160C5E9003305D0234B9C42F3
:1013E00014BF4FF0FF330123214A002142F823109C
:1013F000BDE8F0812B688BE7226812F400621ED0F2
:101400001EB1002201212046B0474FF48003A360A3
:101410000823A3604FF40043A3604FF62171022319
:1014200018F0400FC5E900137FF47FAF18F0010FEB
:10143000DED001220823A2602B60BDE8F08116B146
:1014400011462046B0474FF40003A3600823A36071
:1014500047F611720123C5E9002362E76A68D007E5
:101460003FF57CAF8FE700BF00D0014000E00140B6
:10147000341E002030B5144B984285B0044620D06D
:1014800003F58053984201D005B030BD0120236898
:101490009B0704D505B0BDE83040FFF7A5BDE56862
:1014A0000A4B626953F82010CDE9025201AB02AA3F
:1014B0002046FFF7F1FEDDE90223E260636105B03B
:1014C00030BD0020E3E700BF00D00140341E002003
:1014D0000146014800F014B8006000400146014890
:1014E00000F028B800600040014800F03DB800BF9F
:1014F000006000400146014800F03AB8006000403A
:1015000011F0260C10D00A4A13691B07FCD403699A
:1015100043EA0C03036111F0060007D0044B18697D
:1015200010F00800FBD170476FF00200704700BF59
:101530000060004011F0260C10D00A4A13691B0706
:10154000FCD4036923EA0C03036111F0060007D001
:10155000044B186910F00800FBD170476FF00200CF
:10156000704700BF00600040006900F0D000704785
:10157000036901F0D00123EA0103036100207047F1
:101580002DE9F047042BDDE9089648DC1D46264B83
:101590001B68B6EB530F42D8244B9842044688464A
:1015A00017461BD0224B984225D0224B98422CD074
:1015B000214B984233D1292000F032FD2E2000F03B
:1015C0003DFC1E48FFF73EF8CDE908962B463A460B
:1015D00041462046BDE8F04700F09CB80D2000F0E1
:1015E0001FFD062000F02AFC1548FFF72BF81548D0
:1015F000FFF728F8E8E70E2000F012FD072000F0C2
:101600001DFC1148FFF71EF8DEE70F2000F008FD73
:10161000082000F013FC0D48FFF714F8D4E76FF032
:101620000200BDE8F08700BFDC1800200060044025
:10163000007004400080044000E00B404897021016
:10164000B8960210C4960210D09602100C970210A1
:1016500010B5044600F0EAF8114B9C420DD0114B36
:101660009C420FD0104B9C4211D0104B9C4213D186
:101670002E2000F0E3FB002010BD062000F0DEFB72
:10168000002010BD072000F0D9FB002010BD08206D
:1016900000F0D4FB002010BD6FF0020010BD00BFB1
:1016A00000600440007004400080044000E00B40F3
:1016B0000C4B98420ED00C4B984207D003F5805348
:1016C000984203D003F58053984208D1074B18681D
:1016D00040087047054B186820F0010070476FF014
:1016E0000200704700E00B4000600440DC1800205E
:1016F00000F0FEB800F046B900F090B900F098B9DB
:1017000000F0B6B900F0E2B900F018BA00F01ABA69
:1017100000F052BA2DE9F0479846414B089F984295
:10172000044615465DD003F5805398424FD003F52B
:10173000805398426DD003F5EC23984208BF4FF0D8
:10174000030969D1374E09EB890206EBC20CD000C0
:1017500000220123CCE907223250CCF80820CCF833
:1017600010206FF00102CCF80C308CF82730CCE957
:10177000052263602C4B236163684FEA890A49B3F1
:1017800043F00203636009992046FFF7B1FFFF2F82
:1017900042D8E368D14406EBC90643EA074796F806
:1017A0002720E760236A23624AB1B8F1010F23D0F2
:1017B000B8F1020F18D1636843F4403363606DB130
:1017C000E36843F400530020E360BDE8F0874FF086
:1017D0000109B7E723F002036360D4E72846BDE8B8
:1017E000F0874FF00009ADE7B8F1030F09D1636846
:1017F00043F4E0236360E2E7636843F480336360AB
:10180000DDE7B8F1040FDAD1636843F47023636055
:10181000D5E74FF0020995E76FF00200D5E700BF6A
:1018200000600440841E0020010101002DE9F843FE
:101830002C4B9842044650D003F5805398424AD02E
:1018400003F5805398424AD0274EB0420CBF03267E
:101850004FF0FF3600236362236A23626368234DDF
:1018600006EB860023F0010363604FEAC008E369DA
:1018700055F8089023F04013E361B70005EBC00072
:10188000B9F1000F09D000F0BDFA55F808305B6AD5
:101890001BB148466FF00E01984700236360A360B8
:1018A000E3602361BC1905EBC4046069984204DB62
:1018B000FEF7D0FD6FF0010363613E4405EBC60502
:1018C000A869002804DBFEF7C5FD6FF00103AB61DA
:1018D0000020BDE8F8830126BCE70026BAE702260F
:1018E000B8E700BF0060044000E00B40841E002009
:1018F00038B5234B1B68B1EB530F3DD80D4604465A
:10190000FFF7D6FEB0FBF5F3580813F001030146CC
:1019100023D10F2888BF02462CD9002352100F2A4A
:1019200003F101034FEA61011EDD082BF6D14FF4EC
:1019300000234FF470620F20616921F0FF01014321
:101940006161616921F47F410A436261626922F445
:10195000702213430020636138BD421C0F2ADCDC77
:10196000C0B212020023E7E7082BE0D0C8B212028F
:101970001B04E1E70202DFE76FF0020038BD00BFA1
:10198000DC1800200129034640D010293EDC214A02
:10199000904234D002F5805290422AD002F5805213
:1019A00090422ED002F5EC2290420CBF03224FF061
:1019B000FF32186BC00726D4174802EB820200EBF7
:1019C000C202D06801281ED1586820F0010058607A
:1019D00010299160DA680ED0090201F4706122F4D6
:1019E00070621143D9605A6842F0010200205A60C7
:1019F00070470122DDE722F47062DA60F3E700222B
:101A0000D7E70222D5E76FF0060070476FF00200BB
:101A1000704700BF00600440841E0020C36813F4B8
:101A2000706F1ABFC068C0F303201020704700BF5A
:101A3000C36823F43043C360032907D8DFE801F00B
:101A4000120E0802C36843F40053C36000207047BD
:101A5000C36843F48053C36000207047C368C36009
:101A600000207047C36843F40043C3600020704700
:101A700003290BD8DFE801F00220160CC36823F01D
:101A80000103C360C36823F00203C36000207047F2
:101A9000C36843F00103C360C36843F00203C3603B
:101AA00000207047C36823F00103C360C36843F09C
:101AB0000203C36000207047C36843F00103C360A2
:101AC000C36823F00203C36000207047A1B3F8B5D8
:101AD00014460AB90020F8BD06460D46FFF714FE6D
:101AE00007463046FFF708FEBC4228BF3C460828A0
:101AF00088BF24F001040346002CEBD0082B4FF0E4
:101B000000000BD9032C10D931682950043C043053
:101B1000012CE0D0002CDED0082BF3D831782954EA
:101B2000013C0130002CF7D1D5E7012CD3D031880E
:101B30002952023C0230EBE700207047C069C0F335
:101B400005607047A9B3F8B514460AB90020F8BD7E
:101B500006460D46FFF7DCFD07463046FFF7CCFD95
:101B6000BC4228BF3C46082888BF24F00104034635
:101B7000002CEBD0082B4FF0000009D9032C0ED914
:101B800029583160043C0430002CE0D0082BF5D8F3
:101B9000295C3170013C0130002CF7D1D7E7012CD2
:101BA00006D0295A3180023C0230002CEED1CEE71B
:101BB000FEE70020704700BFC069C0F30520C0F1F8
:101BC0002000704738B54FF0E02318499C691A6926
:101BD00022F480320A601A69D20723D46FF07F445E
:101BE00005225C614FF080759C611A61104B114AAF
:101BF00019680023A0FB010119F0E6FB0E4BB0FBB6
:101C0000F5F205FB120084421A6007D81A68013207
:101C10001A602C44094B201A186038BD074B201A53
:101C2000186038BD5D690135E0E700BF281F00205E
:101C3000DC18002040420F00000000202C1F002074
:101C400070B54FF0E0242369DB0306D50E4D2B68F9
:101C5000002B03DD2B68013B2B6070BD0B4E3368FE
:101C60005BB16FF00F009847094A00233360126898
:101C700022614FF0FF332B6070BD054A4FF0FF33F8
:101C8000126822612B6070BD00000020241F00201C
:101C9000281F002010B50C4C0C4B22681960002A3C
:101CA0000FDC08B9002010BDFFF78CFF2368002B64
:101CB000F8DD4FF0E0220020136943F002031361C6
:101CC00010BD6FF0050010BD00000020241F002093
:101CD000F8B5174C2368002B1EDB26682EBB154B6E
:101CE0004FF0E0251B68AA699A421ED8124F3B6844
:101CF0005BB16FF00F009847104B3E601A682A6185
:101D00004FF0FF3323600020F8BD0C4A4FF0FF3343
:101D100012682A612360F6E7074C2368002BF2D093
:101D20000020984700202060F8BD6FF00500F8BD46
:101D3000000000202C1F0020241F0020281F00204E
:101D400010B5094C236823B16FF00F0098470023AA
:101D50002360064A064B10684FF0E0214FF0FF3237
:101D600008611A6010BD00BF241F0020281F00203A
:101D70000000002038B5184C2268002A29DC00B980
:101D800038BDFFF71FFF4FF0E02202E01369DB03CD
:101D90001BD42368002BF9DC104B1A684FF0E021AC
:101DA0008B699342FCD80E4D2B6823B16FF00F0066
:101DB000984700232B600B4B4FF0E022196811610C
:101DC0004FF0FF330020236038BD2368013B2360C0
:101DD000DFE76FF0050038BD000000202C1F002059
:101DE000241F0020281F002050E8003F3BB940E896
:101DF0000013002BF8D1BFF35F8F184670476FF0C8
:101E000005007047BFF35F8F00230360704700BF7A
:101E10001F284FF0804209D92038916C0123C0B2AD
:101E200003FA00F00843906400207047516A0123D0
:101E300003FA00F008435062002070471F284FF05B
:101E400080410AD920388B6C0122C0B202FA00F01E
:101E500023EA00008864002070474B6A012202FADE
:101E600000F023EA00004862002070474FF08043F2
:101E700070B59E680546062800F2C580DFE800F0D0
:101E800089C30438516D04004FF080440021A368D9
:101E900043F40033A3604FF47A70FFF7FBFE04E0D5
:101EA000FFF716FF063040F0B880A3689A01F7D517
:101EB000FFF746FFA36823F46063A36000214FF49B
:101EC0007A70FFF7E7FE4FF0804404E0FFF700FF71
:101ED000063040F09B80A3689B04F7D5FFF730FFE6
:101EE000062D70D8DFE805F07A6F69888173690084
:101EF00000214FF47A70FFF7CDFE4FF0804404E0EC
:101F0000FFF7E6FE063040F08880A3689B00F7D517
:101F1000FFF716FFA36823F4606343F4C063A36074
:101F2000CCE74FF080440021A36843F40023A36072
:101F30004FF47A70FFF7AEFE03E0FFF7C9FE0630FC
:101F40006BD1A3681801F8D5FFF7FAFEA36823F454
:101F5000606343F40063A360B0E74FF08044002166
:101F6000A36843F48013A3604FF47A70FFF792FEE6
:101F700003E0FFF7ADFE06304FD1A368D900F8D5D6
:101F8000FFF7DEFEA36823F4606343F42063A360DD
:101F900094E74FF080440021A36843F48023A360BA
:101FA0004FF47A70FFF776FE03E0FFF791FE0630FC
:101FB00033D1A3685A01F8D57AE74FF0804293688D
:101FC00023F4E0139360FEF747F9002070BD4FF053
:101FD0008042936823F460239360F4E74FF08042DB
:101FE000936823F4D0139360EDE74FF08042936839
:101FF00023F4B0139360E6E74FF08042936823F434
:10200000F0139360DFE76FF0020070BDA36806F481
:10201000606623F460631E43A6606FF0090070BD24
:102020001F280CD92038C0B201234FF0804203FA98
:1020300000F05064536C002BFCD10020704701234A
:102040004FF0804203FA00F050605368002BFCD13F
:10205000002070470D2938D12DE9F8430446B8B364
:102060004FF08450FEF71AFA4FF084504668D0F8CB
:102070000080C5688768D0F81090FEF715FA7300E5
:1020800043EAD873A3706B0043EAD77323724FEA15
:10209000D8332370F309E370F30B2371FB0BEA09C8
:1020A0004FEAD9394FEAD858F60DFF0DA371EB0B63
:1020B000ED0D84F80C9084F801806671E77162720E
:1020C000A372E5720020BDE8F8836FF0020070474C
:1020D0004FF0FF30F7E700BF00B585B00D2168462F
:1020E000FFF7B8FF9DF8000000F00F03092B04D89C
:1020F0009E2802D905B05DF804FB4FF08043186DAF
:10210000C0B205B05DF804FB00F000B80123C36065
:10211000704700BF10B50446204600F0F1F80028D3
:10212000FAD02046BDE8104000F0E0B838B50446CB
:102130000D46204600F0F8F80028FAD0294620463F
:10214000BDE8384000F0D4B808B5124B98420DD025
:10215000114B984212D0114B984217D11C20FFF717
:102160005FFF2120FFF754FE002008BD0B20FFF782
:1021700057FF0920FFF74CFE002008BD0C20FFF799
:102180004FFF0A20FFF744FE002008BD6FF0020059
:1021900008BD00BF0020044000300440004004405F
:1021A00038B504460D46FFF7CFFFB0B9154B9C423A
:1021B0001BD0154B9C4211D0144B9C420BD11448A0
:1021C000FEF740FA2120FFF739FE29462046BDE8F8
:1021D000384000F00BB96FF0020038BD0D48FEF733
:1021E00031FA0A20FFF72AFEEFE70B48FEF72AFA3A
:1021F0000920FFF723FE29462046BDE8384000F0BD
:10220000F5B800BF00200440003004400040044006
:10221000B49702109C9702108497021000F016B930
:1022200000F0A6B900F0F8B900F012BA00F032BA26
:10223000164B984270B504460D4616460FD0144B07
:10224000984216D0134B98421DD11348FEF7FAF965
:10225000324629462046BDE8704000F0B7BA0F4824
:10226000FEF7F0F9324629462046BDE8704000F0FE
:10227000ADBA0B48FEF7E6F9324629462046BDE8DE
:10228000704000F0A3BA6FF0020070BD002004405F
:102290000030044000400440C097021090970210A4
:1022A000A8970210074B984207D003F58053984235
:1022B00003D003F58053984201D1FFF72BBF6FF095
:1022C0000200704700200440074B984207D003F5F6
:1022D0008053984203D003F58053984201D1FFF711
:1022E00025BF6FF0020070470020044000F0A6BA3E
:1022F00000F0BCBA00F0D4BA00F0ECBA00F004BBB5
:10230000074B984207D003F58053984203D003F55A
:102310008053984201D100F00DBB6FF0020070476E
:102320000020044000F00ABB074B984207D003F599
:102330008053984203D003F58053984201D100F0B6
:1023400013BB6FF0020070470020044000F012BB86
:10235000074B984207D003F58053984203D003F50A
:102360008053984201D100F021BB6FF0020070470A
:102370000020044000F01EBB074B984207D003F535
:102380008053984203D003F58053984201D100F066
:102390002DBB6FF0020070470020044000F028BB06
:1023A00000F03ABB00F04EBB074B984207D003F554
:1023B0008053984203D003F58053984201D100F036
:1023C00059BB6FF0020070470020044000F054BB7E
:1023D00000F02ABC00F000BC00F0D6BB00F0B8BC96
:1023E00000F05ABC00F086BC00F0DEBC70B50E46B2
:1023F00001210546FFF7AAFF044608B1204670BD3B
:1024000002212846FFF7B6FF04460028F6D108212E
:102410002846FFF707FF04460028EFD1014628466B
:10242000FFF704FF04460028E8D101462846FFF7DD
:10243000FBFE04460028E1D12B6843F0010331463E
:102440002B602846FFF7EAFED8E700BF434B9842CF
:1024500007EE901A07D003F58053984203D003F596
:102460008053984273D103681B0457D43C4B1B68BC
:102470005B0807EE103AB8EEC77AF8EE677A0522E5
:10248000C7EE276A0823B7EE006A07EE903AB8EE67
:10249000E77AC6EE877AF4EEC67AF1EE10FA47D400
:1024A000013A4FEA4303F0D19FED2E7A8022C6EE27
:1024B000877ABDEEE77AF8EEC76A77EEE67AF0EE55
:1024C000676AFEEEEC6A16EE903A032BCCBF033B34
:1024D0000333202A38D024DC082A26D0102A08BF4B
:1024E0004FF4403C36D1416921F4403141EA0C01BE
:1024F00010B4416141691C4C17EE102A2140C2F30F
:102500000B0C41EA0C0141618269C3F30B032240C9
:1025100013435DF8044B8361FFF782BE9FED137A8E
:10252000ABE7402A0DD0802A14D14FF0000CDAE737
:102530000E2B4FEA63020ADD07EE902AB8EEE77A27
:10254000B5E74FF4803CCEE74FF4003CCBE76FF0AB
:10255000020070476FF00700704700BF0020044082
:10256000DC1800200000004300F0FFFF0000E14AFB
:1025700003681B0442D4244B1B685B0807EE903AA7
:10258000F8EEE76A43698269DFED205AC2F30B0275
:1025900007EE102AC3F30B0307EE903AB8EEC77AA2
:1025A000B0EE086AF8EEE77AB4EEC67AF1EE10FA09
:1025B00077EEA57A06DDF1EE085AB4EEE57AF1EE93
:1025C00010FA1ED9B0EE086A37EE067A43699FED1D
:1025D000106A03F44033C3F1070201239340E7EE8E
:1025E000067A07EE103AB8EEC77A67EE277A86EEDB
:1025F000A77AFDEEC77A17EE900A7047DFED056AFD
:10260000C0E737EE467AE1E7DC1800200000000062
:102610000000003C0000E14A0C4A9042034607D00B
:1026200002F58052904203D002F5805290420AD1C6
:102630000539032907D81A6822F4407242EA0121B9
:102640000020196070476FF00200704700200440BE
:102650000F4B984207D003F58053984203D003F5FF
:102660008053984202D161B1012903D06FF0020179
:10267000084670470368002143F4806303600846FE
:102680007047036823F4806303600846704700BF07
:10269000002004404C4A9042034608D002F5805284
:1026A000904204D002F58052904240F08A800C297A
:1026B00000F28780DFE801F0431523330715492333
:1026C0005733670777001A6842F002021A601A68E7
:1026D00042F00C021A601A6822F0100200201A6000
:1026E00070471A6842F002021A601A6822F00C025F
:1026F0001A601A6822F0100200201A6070471A68E7
:1027000042F002021A601A6822F00C0242F004023F
:102710001A601A6822F0100200201A6070471A68C6
:1027200042F002021A601A6822F00C0242F008021B
:102730001A601A6822F0100200201A6070471A68A6
:1027400022F0020200201A6070471A6842F002026A
:102750001A601A6822F00C021A601A6842F010021D
:1027600000201A6070471A6842F002021A601A6864
:1027700022F00C0242F004021A601A6842F01002C1
:1027800000201A6070471A6842F002021A601A6844
:1027900022F00C0242F008021A601A6842F010029D
:1027A00000201A6070471A6842F002021A601A6824
:1027B00042F00C021A601A6842F0100200201A60FF
:1027C00070476FF002007047002004401A4B984297
:1027D00007D003F58053984203D003F58053984205
:1027E00004D101291FD0022914D019B16FF00201C0
:1027F00008467047036823F400630360531E1F2BD1
:10280000F4D8436823F47C13002143EA0242426077
:1028100008467047036843F400630360036843F4A9
:1028200080530360EAE7036843F4006303600368CE
:1028300023F480530360E1E7002004400A4B9842F0
:1028400007D003F58053984203D003F58053984294
:1028500004D18368DB0604D4C06970476FF00200BE
:1028600070476FF00C007047002004400B4B9842FB
:1028700007D003F58053984203D003F58053984264
:1028800006D1836813F0800305D1C16118467047F3
:102890006FF0020070476FF00B007047002004409B
:1028A000F8B51368002B174610DD06464D1E0024B0
:1028B00005E005F8010F3B680134A34207DD30460F
:1028C000FFF7F0FC0028F4DA3C60F8BD00243C601F
:1028D0000020F8BDF8B51368002B174610DD06463A
:1028E0004D1E002403E03B680134A34209DD15F8C6
:1028F000011F3046FFF7E8FC0028F4D03C60F8BD2B
:1029000000243C600020F8BD8AB110B401390023D6
:1029100005E00133C46901F8014F9A4203D084688D
:10292000E406F6D51A4610465DF8044B704710468B
:10293000704700BF8068C0F3052070478AB110B4AB
:102940000139002305E0013311F8014FC4619A42B7
:1029500003D084682406F6D51A4610465DF8044B69
:1029600070471046704700BF8068C0F30540C0F153
:10297000200070470C4A9042034607D002F580526F
:10298000904203D002F58052904209D14A1E1F2A7C
:1029900006D85A6822F03F02114300205960704760
:1029A0006FF00200704700BF00200440406800F054
:1029B0003F0070470C4A9042034607D002F5805210
:1029C000904203D002F5805290420AD14A1E1F2A3B
:1029D00007D85A6822F47C5242EA0121002059604B
:1029E00070476FF002007047002004400069704794
:1029F000084B984207D003F58053984203D003F563
:102A00008053984202D10161002070476FF00200AC
:102A1000704700BF00200440094A9042034607D097
:102A200002F58052904203D002F58052904204D1C8
:102A3000DA6811430020D96070476FF002007047D8
:102A4000002004400A4A9042034607D002F5805213
:102A5000904203D002F58052904205D1DA6822EA12
:102A600001010020D96070476FF00200704700BF7D
:102A7000002004408068704710B53F4B0446006852
:102A8000984207D003F58053984203D003F5805352
:102A9000984266D1E36843B36368002B61D0364A3D
:102AA00000239042636109D0344B984257D003F51C
:102AB000805398420CBF02234FF0FF33304A40212D
:102AC00042F82340FFF76CFC2068FFF72DFC61699A
:102AD000E3685A1A824228BF0246D4E90003194427
:102AE000FFF720FC6369184460612069002833D037
:102AF000A3682068002B37D01F4A00239042A361AF
:102B000009D01E4B984228D003F5805398420CBF41
:102B100002234FF0FF331B4A0B2142F82340FFF7FB
:102B20003FFC10212068FFF73BFC2068FFF7E8FB23
:102B3000A16923695A1AA368824228BF0246194430
:102B40002068FFF7DBFBA369024613442068A361FA
:102B50001021FFF723FC002010BD0123DBE7012338
:102B6000ACE76FF0020010BD4FF0FF31FFF71AFC29
:102B70006FF0020010BD00BF002004400030044090
:102B80003C1F0020301F002008B5114B984219D07F
:102B900003F5805398420CD003F58053984213D12B
:102BA00002220C4B53F82200C3694BB19847002016
:102BB00008BD084B012253F82200C369002BF5D150
:102BC000184608BD0022ECE76FF0020008BD00BF08
:102BD00000200440301F002008B5114B984219D046
:102BE00003F5805398420CD003F58053984213D1DB
:102BF00002220C4B53F82200C3694BB198470020C6
:102C000008BD084B012253F82200C369002BF5D1FF
:102C1000184608BD0022ECE76FF0020008BD00BFB7
:102C2000002004403C1F002010B5184B984282B091
:102C3000044623D003F5805398421DD003F58053FA
:102C400098420CBF02234FF0FF33114A114852F84B
:102C5000232050F823309A4212D020460191FFF7EA
:102C6000BBFF0199034620461C46FFF78DFF002C51
:102C700018BF204602B010BD0123E6E70023E4E7B9
:102C8000204602B0BDE81040FFF7A6BF0020044078
:102C90003C1F0020301F0020144A904208B519D074
:102CA00002F5805290420CD002F5805290421AD127
:102CB0004021FFF777FB0E4B0222002043F8220051
:102CC00008BD4021FFF76EFB094B0122002043F8AD
:102CD0002200F5E74021FFF765FB054B00220020AD
:102CE00043F82200ECE76FF0020008BD002004402A
:102CF0003C1F0020144A904208B519D002F58052BA
:102D000090420CD002F5805290421AD11B21FFF75D
:102D100049FB0E4B0222002043F8220008BD1B2174
:102D2000FFF740FB094B0122002043F82200F5E7A2
:102D30001B21FFF737FB054B0022002043F8220040
:102D4000ECE76FF0020008BD00200440301F0020B7
:102D500038B5124B984204461AD003F58053984276
:102D600014D003F58053984214D102250C4B53F82C
:102D7000253013B12046FFF733FB0A4B53F82500EB
:102D800018B12046FFF72EFB002038BD0125EDE7E6
:102D90000025EBE76FF0020038BD00BF00200440C3
:102DA0003C1F0020301F0020F8B5494B98420446D4
:102DB00077D003F58053984206D003F580539842AC
:102DC00071D06FF00200F8BD01272046FFF7D4FA5A
:102DD000E368034013F00B0F05466DD13D4B4206EF
:102DE00053F8276051D5F3680EB1002B38D17269C2
:102DF0009A424ED0384B53F82760EB0623D53369FF
:102E000006B123B9B2699A4221D00020F8BD3068DA
:102E1000FFF776FAB16933695A1AB368824228BF5C
:102E2000024619443068FFF769FAB2693369104401
:102E30001D1AB0613068FFF78BFA854235D33068D0
:102E40001021FFF7ABFA3369B2699A42DDD1002154
:102E50002046FFF7C1FA2046FFF7C4FA0020F8BD6C
:102E60003068FFF761FA7169F3685A1A7368824231
:102E7000194428BF02463068FFF754FA73691844B2
:102E8000706140213068FFF789FAF36872699A42ED
:102E9000B0D120460021FFF79DFA2046FFF7A0FAA7
:102EA000A8E7002791E702278FE73169B369306807
:102EB000C91AFFF74BFAC2E76FF008012046FFF787
:102EC00087FA2046FFF78AFA6FF00300F8BD00BFCB
:102ED000002004403C1F0020301F0020022804D89E
:102EE00068B942F210730B607047032804D141F2B5
:102EF00088330B60002070476FF01500704740F674
:102F0000C4130B6000207047022805D9032806D19E
:102F1000044B0B60002070470020086070476FF082
:102F2000150070470180FFFF70B50446412300F192
:102F30000805237288B204F10901164618F04CF90D
:102F4000032229460F48002317F048FE0422E072AE
:102F50002946606802F08AF900B170BD3146054625
:102F600001F8010B18F038F931462B4603220548C9
:102F700017F034FEF070606831460422BDE87040FE
:102F800002F074B9481F002038B504460B4600F122
:102F9000080500F109012372104618F01DF92946B1
:102FA00003220023054817F019FEE07229466068E5
:102FB0000422BDE8384002F059B900BF481F002084
:102FC000F8B500F1080716463A460546FFF7ACFF8C
:102FD000044608B12046F8BD034639460848032296
:102FE00017F0FCFDEB7A834206D105F1090018F0D9
:102FF000F7F830802046F8BD6FF01504EAE700BF0F
:10300000481F00202DE9F84F00F1080916464A46EE
:1030100004469A468846FFF787FF054610B12846C2
:10302000BDE8F88F2B4616480322494617F0D6FD17
:10303000E37A834220D104F1090B584618F0D0F806
:1030400051460746304618F07DF827EA0606304319
:10305000594684F8088080B218F0BEF849462B46DD
:103060000322074817F0BAFDE0724946606804225F
:10307000BDE8F84F02F0FAB86FF01505CFE700BFD2
:10308000481F00202DE9E04F00F1080882B00F46EC
:103090009146232142461E460546FFF745FF03465B
:1030A00018B1184602B0BDE8E08F754803224146CA
:1030B00017F094FDEB7A834240F0DF8005F1090BB5
:1030C000584618F08DF80146FF2018F04FF8C0B2AE
:1030D00018F060F8012382464FF4407223212846FD
:1030E000FFF790FF03460028DBD1642003F0E4FFE4
:1030F0004246002E62D1791D2846FFF715FF034690
:103100000028CED133465E480322414617F066FDC3
:10311000EB7A834240F0B180584618F061F80146DE
:10312000182018F023F8C0B22B78002B40F0A180B3
:10313000544B53F82000B0F57A7F5FFA8AFA80F09A
:103140008F8000FB0AF003F0B7FF4246002E52D0FA
:1031500007F12A012846FFF7E7FE03460028A0D121
:1031600047484146032217F039FDEB7A834240F08D
:103170008480584618F034F80146A9F800004FF64C
:10318000FF7017F0F3FF0323A9F800004FF440721B
:1031900023212846FFF736FF0346002881D10190FE
:1031A000642003F089FF1022BA40019B92B22321D0
:1031B000284602B0BDE8E04FFFF724BF2321284690
:1031C000FFF7B2FE034600287FF46BAF2C480322C2
:1031D000414617F003FDEB7A83424ED1584617F073
:1031E000FFFF01464FF4806017F0C0FF80B2B0FAD5
:1031F00080F0400998E707F126012846FFF794FE82
:10320000034600287FF44DAF33461D484146032254
:1032100017F0E4FCEB7A83422FD1584617F0E0FF19
:103220000323A9F800004FF4407223212846FFF73A
:10323000E9FE034600287FF434AF642003F03CFF2E
:103240000122BA40334692B223212846FFF7DAFE24
:10325000034600287FF425AF05EB47052E7320E7D2
:1032600000FB0AFA0848A0FB0A30800903F026FF99
:103270006BE7064B53F820005DE76FF0150310E78E
:10328000481F0020D4970210D34D6210CC97021033
:1032900038B504462E2300F1080500F10901237218
:1032A0004FF6FF7017F098FF2946032200230548C8
:1032B00017F094FCE072294660680422BDE83840AB
:1032C00001F0D4BF481F00202DE9F04144690546B4
:1032D000CCB12046002101F0D3FD044610B12046B8
:1032E000BDE8F081322003F0E7FE6869012101F0BA
:1032F000D5FD04460028F2D10120002403F0DEFEB3
:103300002046BDE8F08100F10908442700F10806D5
:103310000772414641F2FA5017F05EFF234603223E
:103320003146114817F05AFC0422E87231466868A9
:1033300001F09CFF04460028D1D141464AF6517065
:103340002F7217F049FF234603223146064817F033
:1033500045FC0422E8723146686801F087FF0446A4
:103360000028C9D0BBE700BF481F00202DE9F84363
:1033700001F1160300F10909054600F1080803727E
:103380000E4600204946174617F026FF0023032269
:103390004146254817F022FC0422E872414668683D
:1033A00001F064FF044610B12046BDE8F8834423D1
:1033B00049462B7249F23A5017F00EFF234603227A
:1033C0004146194817F00AFC0422E8724146686831
:1033D00001F04CFF04460028E6D106F1010803463F
:1033E0000F2241462846FFF70DFE04460028DBD198
:1033F000822003F061FE3B4641460F222846FFF73C
:1034000001FE04460028CFD101230422711D284665
:10341000FFF7F8FD04460028C6D105EB46059620C7
:1034200003F04AFE6F73BFE7481F0020012370B509
:10343000154603FA01F20E4692B22B4623210446AA
:10344000FFF7E0FD10B904EB4604257370BD00BF23
:103450004FF0100C0CFA01F113468AB22321FFF74A
:10346000D1BD00BFF8B500F1080605311746324658
:103470000546FFF759FD044608B12046F8BD03464E
:1034800031460B48032217F0A9FBEB7A83420BD19C
:1034900005F1090017F0A4FE01463880E02017F07E
:1034A00065FE38802046F8BD6FF01504E5E700BFE3
:1034B000481F0020F8B500F10805053117462A46D7
:1034C0000646FFF731FD044608B12046F8BD034625
:1034D00029461348032217F081FBF37A83421CD15B
:1034E00006F1090017F07CFE0146182017F03EFE99
:1034F000C0B2032811D8DFE800F00D0906024FF42E
:1035000096633B80E1E70A233B80DEE74FF4965366
:103510003B80DAE714233B80D7E76FF01504D4E74C
:10352000481F0020B2F5966F17D009D80A2A12D08A
:10353000142A08BF00230BD118220531FFF762BD02
:10354000B2F5965F04D1012318220531FFF75ABD69
:103550006FF0150070470223EEE70323ECE700BF8E
:10356000F8B500F108061746232132460546FFF755
:10357000DBFC044608B12046F8BD034631460F483F
:10358000032217F02BFBEB7A834213D105F10900DC
:1035900017F026FE01464FF4806017F0E7FD80B279
:1035A00020B94FF496533B802046F8BD14233B804E
:1035B0002046F8BD6FF01504DDE700BF481F00206E
:1035C000142A0BD0B2F5965F02D06FF01500704749
:1035D00000234FF480622321FFF714BD01234FF431
:1035E00080622321FFF70EBD10B50B464FF44072E9
:1035F0002321FFF707FD044610B9642003F05CFDAA
:10360000204610BD2DE9F04106460C4617461D46E2
:1036100053B1012303FA01F2120192B22321FFF701
:10362000F1FC80B1BDE8F0814FF0010808FA01F229
:1036300092B243462321FFF7E5FC0028F2D106EBC6
:10364000440383F80C802B463A4621463046BDE8B9
:10365000F041FFF717BD00BF2DE9F0434FF001091E
:1036600009FA01F383B00E46904623219AB24B46E5
:103670000746FFF7C7FC044620BB07EB4605034699
:1036800085F80C9031460DF106023846FFF7FAFC3A
:103690000446B8B96B7B0A2B4ED8DFE803F0062B43
:1036A00006061A1A3B0606171700BDF80610244A2C
:1036B00043F69B30A1FB000108F1080317F076FDEB
:1036C000C8E90001204603B0BDE8F0833B78012B38
:1036D0002FD0BDF806101B4A49F2035008F1080329
:1036E000A1FB000117F062FDC8E90001204603B00C
:1036F000BDE8F083BDF806101348124AA1F5FF415A
:103700007F3981FB000108F1080317F057FDC8E974
:103710000001D7E7BDF806100C48C1F57F4208F15B
:103720000803A1FB0001FF3217F040FDC8E90001CA
:10373000C8E76FF08504C5E76FF01504C2E700BF66
:10374000A086010000E1F505062A0100200B2000FB
:10375000F8B50446163100F1090700F10806217298
:103760001046394617F038FD032231461048002331
:1037700017F034FA0422E0723146606801F076FDF9
:1037800000B1F8BD442305463946237249F23A5048
:1037900017F022FD31462B460322054817F01EFA8A
:1037A000E072314660680422BDE8F84001F05EBD79
:1037B000481F002089004FF00F0C0CFA01F113464E
:1037C0008AB22421FFF71EBCB2F57A5F19D8012313
:1037D00070B5222114461A460546FFF713FC00B1C6
:1037E00070BDC4EBC402084B04EB8204A3FB0423AA
:1037F0002846C3F38F23BDE870403E222221FFF705
:1038000001BC6FF015007047D34D62102DE9F047F1
:10381000002979D005460E460120182117F01AF824
:103820000746002873D0311D043001F0ABFC04467C
:1038300028B1384617F010F82046BDE8F087374821
:10384000072117F0A5F9716A07F1140001F0E2FAF7
:10385000044638B93846FFF737FD044630B1786979
:1038600001F0F2FA786801F0E7FCE2E72E2307F1B5
:10387000090907F108083B7249464FF6FF7017F037
:10388000ABFC234603224146244817F0A7F9042243
:10389000F8724146786801F0E9FC04460028DED160
:1038A0004FF0450A494641F2342087F808A017F046
:1038B00093FC234603224146184817F08FF904224F
:1038C000F8724146786801F0D1FC04460028C6D160
:1038D000514642463846FFF727FB04460028BED132
:1038E00023460E484146032217F078F9FB7A8342BB
:1038F00010D1484617F074FC41F23423984209D1A4
:1039000033783B702F6097E76FF0150494E76FF002
:103910000B0491E76FF01504A1E700BF481F0020DA
:1039200038B5A0B10546FFF7CFFC044668B9686911
:1039300018B101F089FA044638B9686801F07CFCD6
:10394000044610B9284616F087FF204638BD6FF0B0
:103950001504FAE72DE9F047914682B09AB14FF08D
:10396000000A05468846574601260024AB6806FA39
:1039700004FC1CEA030F0AD10134042CF6D10AF12D
:10398000010AD145F1D1484602B0BDE8F087286868
:1039900004F1260101AAFFF7C7FA0028F4D1019B20
:1039A00048F827300137E7E72DE9F04F00268BB0C4
:1039B0000768CDE90266CDE90466CDE90666CDE982
:1039C0000866BA4681465AF80DBB35464FF00108E5
:1039D00002E00135082D30D0BB6808FA05F21A4222
:1039E000F7D07B6898880028F3D09B68002203E01A
:1039F000824203F12403ECD093F820400132002CE2
:103A0000F6D159698D42F3D19B68032B05D80AEB97
:103A100043025278073A012A19D903F1260106F127
:103A200008030DEB03025846FFF77EFA034653B92D
:103A30000135082D06F10406CED1D9F8040002A9FB
:103A400006F018FF034618460BB0BDE8F08F009350
:103A500006F108030DEB030225215846FFF764FA2F
:103A6000009B024608FA03F006F12A0301920DEBCF
:103A70000302009212F8201C17F078FB06F12803CD
:103A800000380DEB0301009A01F81F4C18BF01200C
:103A9000019B02F8200CCAE72DE9F8439846002361
:103AA0000B7098F80320144DDFF850900F46012456
:103AB00006E0B2B10E2C1AD098F803200134043578
:103AC000022C04F1FF36F4D1042AF7D129683846D4
:103AD00018F0A4FF384619F093FBB9F800303B52B8
:103AE000E8E72968384618F099FF0D2EF2D13846DC
:103AF000BDE8F84319F084BB3C990210309C0210D9
:103B000010B503681B7882B0012B0C46049811464F
:103B10000ED001280CD00D4B009305220423204623
:103B200006F0FAFC204602B0BDE8104019F068BB70
:103B3000074B009305220223204606F0EDFC2046A9
:103B400002B0BDE8104019F05BBB00BF24040020A8
:103B50000400002010B582B00C46074B00931146BC
:103B600004230522204606F0D7FC204602B0BDE81B
:103B7000104019F045BB00BF4404002010B582B0CE
:103B80000C46074B0093114604230522204606F0FD
:103B9000C3FC204602B0BDE8104019F031BB00BFA5
:103BA0003404002070B5032106460068FFF71CFDB1
:103BB0000446A8B9214630680022FFF737FC0134DB
:103BC000054678B9042CF5D1294630680022FFF764
:103BD0003FFC0135044618B9042DF5D10323337792
:103BE000204670BD0446204670BD00BF2DE9F84355
:103BF00080468160C8B20F4617F0CCFA002588F8DD
:103C00000C004FF0010902E00135082D25D009FA1A
:103C100005F33B42F8D0D8F804309E8866B19B6823
:103C2000002293F82040013214B95C69A54207D004
:103C3000B24203F12403F4D16FF01500BDE8F8831C
:103C40009968032915D8D8F800000122FFF7EEFB88
:103C50000028F3D10135082DD9D1D8F80000022170
:103C6000FFF7C2FC0028E9D1022388F81C30BDE828
:103C7000F883D8F8000001220439FFF7E9FB002897
:103C8000E8D0DBE730B50446806983B0154610B153
:103C9000237F022B12D0AAB22068FFF775F9A3691F
:103CA000054613B1227F022A02D0284603B030BD58
:103CB000184607F0FFF9284603B030BD019107F020
:103CC00001FA0199E7E700BF70B50446806984B046
:103CD000164610B1237F022B15D020680DF10E027D
:103CE000FFF76EF9A369054613B1227F022A06D0B9
:103CF00015B9BDF80E303360284604B070BD1846C3
:103D000007F0D8F9F4E7019107F0DCF90199E4E74D
:103D100030B5044683B008461D4601AA00230121A0
:103D200006F096FBA06910B1237F022B13D0A9687F
:103D3000019A2068FFF748FDA369054613B1227F69
:103D4000022A02D0284603B030BD184607F0B2F967
:103D5000284603B030BD07F0B5F9E8E770B5044672
:103D600082B008461D4601AA0023012106F070FB1F
:103D7000A069BDF8046010B1237F022B17D0A96899
:103D80002068331E18BF0123C0221231FFF73AF911
:103D9000A369054613B1227F022A02D0284602B049
:103DA00070BD184607F086F9284602B070BD07F0CE
:103DB00089F9E4E730B51D46DB78012B83B025D8BF
:103DC000AB781BB304460023084601AA012106F084
:103DD0003FFBA06910B1237F022B14D0A968BDF866
:103DE00004202068FFF7B4FCA369054613B1227FC5
:103DF000022A02D0284603B030BD184607F05AF90F
:103E0000284603B030BD07F05DF9E7E76FF0150510
:103E1000F0E700BF30B5044683B008461D4601AA4E
:103E20000023012106F014FBA06910B1237F022BAF
:103E300019D0069BBDF80420A968206853B9FFF784
:103E400071FB0546A06910B1237F022B06D02846DE
:103E500003B030BDFFF7B4FB0546F3E707F02AF9DE
:103E6000284603B030BD07F02DF9E2E7F0B504466F
:103E7000806985B00E4617461D4610B1237F022B80
:103E800026D0A96820680DF10A021231FFF798F8D0
:103E9000A369054613B1227F022A15D08DB9BDF85A
:103EA0000A10C02017F062F90123041E03AA18BFEC
:103EB0000124009239461A463046039406F02CFB42
:103EC0000546284605B0F0BD184607F0F3F8E5E7CB
:103ED00007F0F8F8D5E700BFF0B50446806985B073
:103EE0000E46174610B1237F022B2ED020680DF10D
:103EF0000A022221FFF764F8A369054613B1227F65
:103F0000022A1ED0D5B9BDF80A103E2017F02EF9AE
:103F10004FF47A5283B202FB03F30D4AA2FB033241
:103F20000446012303A81209009003923946304643
:103F30001A46ADF80A4006F0EFFA0546284605B0E5
:103F4000F0BD184607F0B6F8DCE707F0BBF8CDE7A0
:103F500009CB3D8DF0B50446806925689F6883B024
:103F60000E4610B1237F022B22D028460DF1060207
:103F70002421FFF725F8A369054613B1227F022A01
:103F800012D075B9BF000F20BDF80610B84017F069
:103F9000EDF8094AC3B2304652F8231018F01AFD62
:103FA000851B284603B0F0BD184607F083F8E8E704
:103FB00007F088F8D9E700BF3C990210F0B5044635
:103FC000806985B00E4617461D4610B1237F022B2F
:103FD00026D0A96820680DF10A021231FEF7F0FF21
:103FE000A369054613B1227F022A15D08DB9BDF809
:103FF0000A100C2017F0BAF803A90B4A009152F8E6
:10400000202003920123394630461A4606F084FAEE
:104010000546284605B0F0BD184607F04BF8E5E721
:1040200007F050F8D5E700BF34040020F0B504468F
:10403000806985B00E4617461D4610B1237F022BBE
:1040400026D0A96820680DF10A021231FEF7B8FFE8
:10405000A369054613B1227F022A15D08DB9BDF898
:104060000A10302017F082F803A90B4A009152F889
:10407000202003920123394630461A4606F04CFAB6
:104080000546284605B0F0BD184607F013F8E5E7E9
:1040900007F018F8D5E700BF44040020F0B51D462E
:1040A000DB78072B89B02DD1044680690E46174670
:1040B00010B1237F022B22D0A968206804AAFFF741
:1040C000CBFAA369054613B1227F022A11D015B19C
:1040D000284609B0F0BD012303AA049C009239468A
:1040E0001A463046039406F017FA0546284609B0EA
:1040F000F0BD184606F0DEFF002DE9D1EBE706F033
:10410000E1FFD9E76FF01505E2E700BFF0B504461F
:10411000806985B00E4617461D4610B1237F022BDD
:1041200024D00A9BA96820680DF10A02BBB9FFF7E9
:10413000C1F90546A06910B1237F022B13D05DB9E8
:10414000012303AABDF80A40009239461A463046B8
:10415000039406F0E1F90546284605B0F0BDFFF7E7
:10416000FFF90546E6E706F0A5FFE8E706F0AAFF37
:10417000D7E700BF70B582B001AA04461D460846C5
:104180000023012106F064F9019AB2F5FA7F28D0E4
:104190001ADC402A1ED0782A08BF01261CD1A0694B
:1041A00010B1237F022B24D0A96820683346302227
:1041B0001231FEF727FFA369054613B1227F022AB9
:1041C00011D0284602B070BD40F21C739A4203D150
:1041D0000326E4E70026E2E76FF01505284602B063
:1041E00070BD0226DBE7184606F064FF284602B0E1
:1041F00070BD06F067FFD7E770B582B001AA04462C
:104200001D4608460023012106F022F9019A962A4C
:1042100026D01ADC042A1CD0402A08BF01261AD155
:10422000A06910B1237F022B22D0A96820683346F1
:104230000C221231FEF7E6FEA369054613B1227F78
:10424000022A0FD0284602B070BDF02A03D10326FF
:10425000E6E70026E4E76FF01505284602B070BDDA
:104260000226DDE7184606F025FF284602B070BD9D
:1042700006F028FFD9E700BF2DE9F041044684B0DD
:104280008069DDF828800E4617461D4610B1237F51
:10429000022B29D0B8F1000F39D0B8F1010F1DD190
:1042A000A968012320680DF10A02FFF7ABF9054662
:1042B000A06910B1237F022B26D08DB9012303AA58
:1042C000BDF80A40009239461A463046039406F07B
:1042D00023F90546284604B0BDE8F0816FF01505C6
:1042E000284604B0BDE8F08106F0ECFEB8F1000FFE
:1042F0000DD0B8F1010FD3D0A0690028EED0237FF4
:10430000022B6FF01505EBD106F0D4FED5E7AB78A4
:10431000A968002BC6D020680DF10A021631FEF7FD
:104320004FFE0546C4E700BF2DE9F0410E4682B0BE
:10433000074631462648274D9846002418F094FB3E
:1043400020B9012C98F803300ED02BB30D2C2CD0B3
:1043500055F8040F3146013418F086FB0028F5D1DA
:10436000012C98F80330F0D1042BF1D1B869224622
:104370003C6810B13B7F022B1DD02046D8F80810B6
:10438000FFF718FABB69044613B13A7F022A17D027
:10439000204602B0BDE8F081B869E2B23C6800286E
:1043A000EBD03B7F022BE8D105E06FF015042046EF
:1043B00002B0BDE8F081019206F084FE019ADCE7CC
:1043C000184606F077FE204602B0BDE8F08100BF37
:1043D000E49702103C9902102DE9F04184B00446A4
:1043E0000A9D884617461E46BDB1012D19D1806928
:1043F00010B1237F022B5CD020680DF10A0224212A
:10440000FEF7DEFD0546A06910B1237F022B4BD0DD
:10441000FDB1284604B0BDE8F081DB783BB1012B4B
:1044200005D06FF01505284604B0BDE8F081B378DB
:10443000002B41D00023039303AC012300941A46C0
:104440003946404606F068F80546284604B0BDE8FF
:10445000F081B368BDF80A109B000F20984016F059
:1044600085FEC0B20D28DCD801A353F820F000BFB0
:10447000354400100F45001035440010054500106C
:104480003544001035440010354400103544001008
:1044900035440010354400103544001035440010F8
:1044A000354400103544001006F004FE002DB0D154
:1044B000CFE706F007FE9FE7A06910B1237F022B2C
:1044C0001DD0B16820680DF10A02FEF7CBFFA36989
:1044D000054613B1227F022A0BD0002D99D103ACDF
:1044E0009DF80A002146FEF70FFD05460028A4D0DE
:1044F0008FE7184606F0DEFD002D8AD1EFE706F0C3
:10450000E1FDDEE748F28733039303AC95E740F221
:104510000B13039303AC90E72DE9F04186B00446FA
:104520000C9D0E4617469846BDB1012D1AD18069E3
:1045300010B1237F022B4BD020680DF10A022421F9
:10454000FEF73EFD0546A06910B1237F022B3AD04D
:1045500025B3284606B0BDE8F081DB78002B3AD0C1
:10456000012B05D06FF01505284606B0BDE8F08197
:1045700098F80230002B00F082806A4A6A4BCDE93D
:10458000042304AB00930A2201233946304605F088
:10459000C3FF0546284606B0BDE8F081D8F80830CC
:1045A000BDF80A109B000F20984016F0DFFDC0B246
:1045B0000D28D7D8DFE800F05C554E48413A352E3B
:1045C00029292222222206F075FD002DC1D1E5E71E
:1045D00006F078FDB0E798F80230002B79D042F66B
:1045E000F8220D23CDE9042304AB00930B22012311
:1045F0003946304605F090FF0546AAE747F23052AB
:104600004FF6FF73CDE90423BBE7484A484BCDE999
:104610000423B6E741F64C524FF6FF73CDE904236D
:10462000AFE7444A424BCDE90423AAE744F25C4297
:104630004FF6FF73CDE90423A3E740F6C4124CF212
:104640001133CDE904239CE7012241F2F853CDE96F
:10465000042396E749F640424FF6FF73CDE9042361
:104660008FE74FF47A7242F2F623CDE9042388E70C
:1046700040F6C4124FF6FF73CDE9042381E7806949
:1046800020B1237F022B01D106F01CFDD8F80810C1
:1046900020680DF10A02FEF7E5FEA369054613B195
:1046A000227F022A11D0002D7FF453AF9DF80A001B
:1046B00003A9FEF713FC054600287FF44AAF039ACE
:1046C0004FF4C803CDE904235BE7184606F0F2FC7B
:1046D000E9E7806920B1237F022B01D106F0F2FCCB
:1046E000D8F8081020680DF10A02FEF7BBFEA36996
:1046F000054613B1227F022A10D0002D7FF429AF86
:104700009DF80A0003A9FEF7E9FB054600287FF49F
:1047100020AF039A1023CDE9042365E7184606F07D
:10472000C9FCEAE7A02526006079D23090E27D003E
:1047300018FCE703E8E158002DE9F04F85B0009040
:10474000002900F020810B688846002B00F01B81B7
:104750002821012016F07EF80646002800F0168178
:104760008D4BD8F800104360FFF750F8834648B1EE
:104770003068FFF7D5F8304616F06EF8584605B0A9
:10478000BDE8F08F3068FEF783FD83460028EFD147
:1047900006F10D03D8F808200393D8F80430C6F8C2
:1047A0000D30C6F81120D8F81030D8F814207B4806
:1047B000C6F81D30C6F82120019606F108013346DF
:1047C0005C465A7B22B19A7B00EBC20252681444C9
:1047D00002339942F5D133465A7F023302B1013494
:1047E0009942F9D12421204616F034F88146002858
:1047F00000F0CF807368CDF808B09C8098600024EA
:104800003346B3469A4626469AF80D30002B54D1CB
:104810000136042E0AF1020AF6D15E46DFF884A1C1
:10482000DDF808B0019DCDF804B000276B7F23B3FD
:10483000AA7F3068012A39460CBF4FF0040B4FF0B5
:10484000000BFEF7B7FF04EBC40309EB830301463B
:10485000002840F091802422184617F0BBFB504AF4
:10486000C2613A1D82600122C0E9047480F804B07C
:10487000C0F818A0013480F822200137042F05F178
:104880000205D3D106F10E03DDF804B0CDE90136FF
:10489000039E002716F81730002B40D10137042F54
:1048A000F8D1029ED8F80C20B26103233377009B25
:1048B00058461E6005B0BDE8F08F9AF80E20DBF870
:1048C00000003146FEF752FD002853D19AF80E3011
:1048D000324901EBC30251F833105368002B97D0D3
:1048E00003EBC3038C4601EB830E9CF8203004EBF2
:1048F000C405674609EB850563B9CCF81440CCF8CC
:104900000860CCF810600FCF0FC50FCF0FC53B6804
:104910002B6001340CF1240CE645E6D178E7019BCD
:104920001E4913F8173001EBC30251F833105368D6
:10493000002BB3D003EBC3038E4601EB830A9EF832
:10494000203004EBC405F44609EB85056BB1CEF8C5
:104950000870CEF81070BCE80F000FC5BCE80F005F
:104960000FC5DCF800302B6001340EF1240EF24547
:10497000E5D193E75E4601464846009115F06CFF8D
:1049800000998B46F4E66FF0150BF7E66FF00B0B12
:10499000F4E66FF00B0BEBE6640300207499021051
:1049A000A4010020A802002038B505460068FEF7E3
:1049B000B7FF044630B96B68986815F04DFF28467C
:1049C00015F04AFF204638BD436870B5044603B36E
:1049D00000252E4614E0A3682B44186B16F0B0FB9C
:1049E000206940B1A3682B4403F11002D96911B1C9
:1049F000D96800F069FB63689E4205F1380508D26A
:104A0000A3682B440136986816F038FA0028E2D0E3
:104A100070BDE06916F094FBE36820465B68984738
:104A20000028F5D1A369013BA36170BD2DE9F043D6
:104A300083B0002961D08B680F46002B5DD01B68C6
:104A4000002B5DD0064601A816F074FB019816F005
:104A500073FBBB6839461B6830469847804630B1C7
:104A6000019816F06BFB404603B0BDE8F083306858
:104A70001C3016F05FFB3368BA68DA607A6882B37C
:104A800044460BE033689B684B4403F1300016F05A
:104A900051FB7B680134A342336822D99B68C4EB85
:104AA000C40503EBC5030022012103F1080016F041
:104AB00093F94FEAC50905460028E3D0002744B121
:104AC00033689B684B440137986816F0D7F9A742C2
:104AD000F6D1306878B183696BB1FFF775FFA846EE
:104AE000BEE79A69019801329A6116F027FB4046A9
:104AF00003B0BDE8F083A846B2E76FF01508B2E74F
:104B00006FF05708AFE700BF70B582B0E0B1C3687F
:104B10000446CBB19B68D3B1C0690E4616F00CFBBE
:104B2000E36801A99B6820469847054630B9019B78
:104B3000A268C3EBC30302EBC3033360E06916F062
:104B4000FDFA284602B070BD6FF01505F9E76FF069
:104B50005705F6E738B5A0B1C36804468BB10D46DA
:104B600079B1DB6883B1086B16F0E6FAE36829686F
:104B7000DB68204698470446286B16F0DFFA20468B
:104B800038BD6FF01504FAE76FF05704F7E700BF80
:104B90002DE9F04782B000286BD08946002968D003
:104BA0009046002A65D01C46002B62D08246186BC6
:104BB00016F0C2FA4E4600253146A0682F46013550
:104BC00016F0EAF8A84506F12406F5D1DAF8103017
:104BD000002B43D004F1200363612368E36199F85B
:104BE0001C306376C4E908A499F80C30012B2BD94A
:104BF000022B3BD109232376DAF80C3049461B6996
:104C000020469847064678B9DAF820301A4AE16813
:104C1000DAF81000002B08BF1346224642F8103F76
:104C200000F046FA064690B10025A06801A916F0EA
:104C300089F8AF4205F10105F7D1206B16F07EFA35
:104C4000304602B0BDE8F0870B232376D4E7D9F8CD
:104C50001820E168DAF8100000F066FA206B16F010
:104C60006DFA0026304602B0BDE8F0876FF01506F9
:104C7000DAE76FF01506E3E7354D001038B5044666
:104C80000025006B16F058FA206B84F8345016F0AB
:104C900055FA284638BD00BF38B5C8B1C3680446C8
:104CA000B3B10D46A1B15B69ABB1086B16F044FA24
:104CB000206910B1E96800F01FFAE36820465B69DB
:104CC000294698470446286B16F038FA204638BD26
:104CD0006FF01504FAE76FF05704F7E730B583B0CB
:104CE00008B3C3680546F3B10C46E1B19B69EBB16B
:104CF000086B16F021FA286910B1E16800F008FA93
:104D0000A06801A916F01EF80028F9D0EB6821462A
:104D10009B69284698470346206B1C4616F00EFAFE
:104D2000204603B030BD6FF01504F9E76FF057046B
:104D3000F6E700BF10B5436884B0044602A998683E
:104D400016F000F8E8B9636801A9986815F0BAFF91
:104D5000636803A9986816F0C3F80298036913B151
:104D6000426901999847039B8BB123680199DB68DD
:104D700060681B699847D4E90001FFF78DFF04B014
:104D800010BDD4E90001FFF7A9FF04B010BDD4E9BC
:104D90000032D168186900F0BBF9636801221A710A
:104DA00004B010BD09B1087970470120704700BFF9
:104DB00038B5A0B1C36804468BB10D4679B11B6A02
:104DC0006BB1086B16F0B8F9E36829461B6A2046F8
:104DD00098470446286B16F0B1F9204638BD0124E7
:104DE000204638BD61B138B5CB680C4673B11B683D
:104DF0004BB10546984710B92B68E268DA6038BDB8
:104E00006FF0150070476FF0570038BD6FF0150058
:104E100038BD00BF38B5054669B14B6801330C4653
:104E200009D0CB686BB15B6843B1984710B92B6868
:104E3000E268DA6038BD0020286038BD6FF05700A6
:104E400038BD6FF0150038BD20B1C36833B19B6821
:104E50000BB1184770476FF0570070476FF015009F
:104E6000704700BF20B1C36833B1DB680BB118478E
:104E700070476FF0570070476FF01500704700BF24
:104E800020B1C36833B11B690BB1184770476FF08D
:104E9000570070476FF01500704700BF20B1C3681E
:104EA00033B19B690BB1184770476FF057007047DB
:104EB0006FF01500704700BF28B1C3683BB19A6915
:104EC00012B1DB69184770476FF0570070476FF0F9
:104ED0001500704700293ED0CB682DE9F0410C4603
:104EE000002B32D01B68002B32D00A68042A2CD841
:104EF0001C4E56F8227005467FB121462846984739
:104F000048B92368296856F823300B601A790132B2
:104F10001A71E3680B61BDE8F0811821012015F0DA
:104F200099FC8046D0B116F005F988F80470236822
:104F3000626846F82380C8F80830E368C8E90323AC
:104F400022691B68C8F81420D7E76FF01500E2E764
:104F50006FF05700DFE76FF0150070476FF00B0040
:104F6000D9E700BF4820002070B50B4E56F82050FE
:104F70002B7904464BB9286816F0E2F8284615F05C
:104F80006BFC002346F8243070BD013BDBB22B7173
:104F9000002BF0D070BD00BF4820002078B103691D
:104FA00010B504468BB102681AB19068FFF7DCFFB8
:104FB0002369DB6833B12046BDE8104018476FF025
:104FC000150070476FF0570010BD6FF0150010BD51
:104FD000F8B5C8B11D4603690446ABB15B68B3B10F
:104FE0000368186816460F4616F0A6F822692B4685
:104FF0002046556839463246A84723680446186853
:1050000016F09CF82046F8BD6FF01504FAE76FF033
:105010005704F7E7F8B5C8B11D4603690446ABB1BC
:105020009B68B3B10368186816460F4616F084F8FB
:1050300022692B462046956839463246A8472368A0
:105040000446186816F07AF82046F8BD6FF015048B
:10505000FAE76FF05704F7E779B138B54B680C46BB
:105060008BB11B6863B10546984728B92B68616806
:105070009A68596001329A6038BD6FF01500704728
:105080006FF0570038BD6FF0150038BD50B1426861
:1050900042B1916A49B18268013A826002B9084717
:1050A000002070476FF0150070476FF05700704791
:1050B00020B1436813B15B681BB118476FF015004E
:1050C00070476FF05700704720B1436813B19B6879
:1050D0001BB118476FF0150070476FF0570070470D
:1050E00020B1436813B15B691BB118476FF015001D
:1050F00070476FF05700704720B1436813B19B6948
:105100001BB118476FF0150070476FF057007047DC
:1051100020B1436813B1DB691BB118476FF015006C
:1051200070476FF05700704720B1436813B11B6A96
:105130001BB118476FF0150070476FF057007047AC
:1051400038B51C210546012015F084FBA0B10446AA
:1051500015F0F0FF00202071D5E90032C4E90232D9
:105160006A7A2274AA7A6274EA68A9696261044A56
:10517000A16142F8234038BD6FF00B0038BD00BF7D
:105180005C200020002936D0CB6870B50C4663B394
:105190001B686BB30A68082A27D8194E56F82220D4
:1051A0000546CAB1214628469847034690B921686A
:1051B0002A6856F821101160087901300871E168F9
:1051C0001161E169116210342A6894E80300143215
:1051D00082E80300184670BD0846FFF7B1FF03469A
:1051E0000028F7D1E3681B68DCE76FF01503F1E7EF
:1051F0006FF05703EEE76FF015031846704700BFD6
:105200005C20002070B50B4E56F820502B790446D8
:105210004BB9286815F094FF284615F01DFB0023B4
:1052200046F8243070BD013BDBB22B71002BF0D06F
:1052300070BD00BF5C20002078B1036910B5044642
:105240008BB102681AB19068FFF7DCFF23695B69D4
:1052500033B12046BDE8104018476FF01500704785
:105260006FF0570010BD6FF0150010BD70B5B8B1EC
:1052700003690446A3B15B68ABB1036818680D46C7
:10528000164615F059FF236920465B6832462946C9
:10529000984723680446186815F050FF204670BDF3
:1052A0006FF01504FAE76FF05704F7E72DE9F041C6
:1052B00060B3036980464BB39D681DB12B46BDE8C2
:1052C000F04118470368174618680C4615F034FF7C
:1052D00057B91EE083B12289FFF7C8FF061E04F10B
:1052E0001C040BDBAF4209D0D4E9002393421946DA
:1052F000404605F10105EDD06FF01506D8F80030F5
:10530000186815F01BFF3046BDE8F0816FF01506F8
:10531000F9E73E46F2E700BFF8B5E9B14B690C4644
:10532000D3B10A780A2A17D81B68C3B10646984732
:10533000054608B12846F8BD336862695A61094FCD
:10534000207807EB800015F0F5FE2278336857F8D7
:1053500022201A602846F8BD6FF01505EAE76FF0C5
:105360005705E7E780200020C8B1436910B504461F
:1053700093B15B696BB1006815F0E2FE6369217956
:10538000084A5B69002042F821002046BDE8104031
:1053900018476FF0570010BD6FF0150010BD6FF08B
:1053A000150070478020002070B5B8B143690446ED
:1053B000A3B10D4691B15B689BB10068164615F02C
:1053C000BBFE636920465B68324629469847034620
:1053D00020681C4615F0B2FE204670BD6FF0150423
:1053E000FAE76FF05704F7E770B5B8B143690446C0
:1053F000A3B10D4691B19B689BB10068164615F0AC
:105400009BFE636920469B683246294698470346BF
:1054100020681C4615F092FE204670BD6FF0150402
:10542000FAE76FF05704F7E72DE9F0410D4F0E4D05
:105430000E46002430194FF41672394617F00AFA56
:1054400005F10C084545044408D055F8042B3019E3
:10545000394617F0FFF945450444F6D12046BDE82A
:10546000F08100BFCC990210A89A02102DE9F041FA
:10547000DFF83C800C4D0D4A0E46002430194146A1
:1054800017F0E8F905F10C07BD42044408D055F8BF
:10549000042B3019414617F0DDF9BD420444F6D122
:1054A0002046BDE8F08100BF909A0210D09902100A
:1054B000DC99021038B5074D074A0C4620462946AC
:1054C00017F0C8F9054A294604F1090017F0C2F996
:1054D000102038BDDC990210E0990210EC990210FE
:1054E00030B5044685B09C4603AA08460023012136
:1054F0002568644604F0ACFF039AB2F5167F0DD020
:10550000822A1DD0B2F5967F1CD0B2F5966F08BFE7
:10551000032104D06FF0150005B030BD0021B4F9AF
:10552000003003225B009A401046019215F00AFEFB
:10553000019A03460E21284600F088FB05B030BDD5
:105540000121ECE70221EAE7006800F031BB00BF6F
:1055500030B583B00D46006801AA0D211C4600F04D
:1055600027FB78B9A36801995B000320984015F0E8
:10557000FDFD054A054952F82020034628460193BF
:1055800017F068F903B030BD8C9A0210F49902103C
:1055900070B584B016460C46006803AA0E211D465D
:1055A00000F006FB98B9B5F9003003995B000320C1
:1055B000984015F0DBFD074A012302EB8002054607
:1055C0000092314620461A46039504F0A5FF04B028
:1055D00070BD00BFA49A021000B585B00123084633
:1055E000114603AA00921A46039304F095FF05B0F2
:1055F0005DF804FB10B584B001230846114603AAE8
:10560000009200241A46039404F086FF04B010BDF3
:105610002DE9F0410D46D0F800801449144E28467B
:105620001F46002417F020FA48B10134042C19D089
:1056300056F8041B284617F017FA0028F5D1B86869
:1056400003254000214605FA00F015F07BFDB968FE
:10565000490005FA01F203460D214046BDE8F0413C
:1056600000F0F4BA6FF01500BDE8F081D099021097
:10567000909A021070B50C4605460D49204617F069
:10568000F3F9014640B10B49204617F0EDF910B18E
:105690006FF0150070BD012180202C6815F052FDBF
:1056A0008022C3B20C212046BDE8704000F0CEBA83
:1056B000E0990210EC99021030B51C469B7883B03B
:1056C0006BB1054601AA08460023012104F0C0FE83
:1056D000019AA168286800F0F3F803B030BD6FF0BC
:1056E0001500FAE730B585B00C4615469968006894
:1056F00003AA00F0CFF838B903AA01230092294683
:105700001A46204604F008FF05B030BD10B582B03F
:105710000C46006801AA0C2100F04AFA58B9019918
:10572000802015F023FD054AC3B2204652F823100D
:1057300017F050F9001B02B010BD00BF9C9A021078
:10574000006800F0FBB900BF2DE9F84F00F1080137
:105750000546074603464FF000081A7C02330AB19B
:1057600008F101088B42F8D12421404615F072F867
:105770000646002844D00024DFF890A0A146387CDB
:1057800009EBC90306EB83032422002150B397F8E9
:1057900011B0BBF1020F25D0184616F01BFC0122F8
:1057A000934580F8222007BF174AC26180F8202065
:1057B000C0F81CA0846004615A462868214609F19B
:1057C000010900F08BF8A0B90134042C07F102079D
:1057D000D5D16B684FF0000B9E60A3F8048058464B
:1057E000BDE8F88F28680222214600F077F80028EB
:1057F000EAD08346304615F02FF85846BDE8F88FBA
:105800006FF00B0BF9E700BFF804002070050020D3
:10581000F8B529B30B680C4613B3074618210120CD
:1058200015F018F80546F0B1216800F08DF806462D
:1058300020B1284615F010F83046F8BD0B4B6B60D0
:105840006368A2686A612B612846FFF77DFF064600
:1058500010B93D603046F8BD286800F007F9E8E768
:105860006FF01506E8E76FF00B06E5E7C0040020CF
:1058700068B110B543680446986814F0EDFF2068DD
:1058800000F0F4F8204614F0E7FF002010BD6FF0A0
:1058900012007047032970B50ED80D460221164636
:1058A00000F086F9044628B901203168A84015F0B7
:1058B0005DFC3060204670BD6FF01504FAE700BF54
:1058C0000329134607D801228A40002B18BF13462C
:1058D000002100F0BBB96FF01500704730B5012A08
:1058E00083B005460C4629D0022A15D01AB16FF0B4
:1058F000150003B030BD114604340122A240104609
:10590000019215F01FFC019A03460021284603B0BE
:10591000BDE8304000F09AB90321620001FA02F2BA
:105920001046019215F00EFC019A03460D212846FF
:1059300000F08CF90028DCD10121DDE74B000322C7
:105940009A400021ECE700BFF0B5064683B00D4653
:1059500001201C2114F07EFF002800F0848069687B
:1059600007460430FFF70EFC044628B1384614F011
:1059700073FF204603B0F0BD2B7EA968FB7607F1CC
:105980000800FFF747FA0446002868D1B86828B134
:105990000121FFF783FA044600285DD1E96807F189
:1059A0000C00FFF737FA0446002855D1F86820B1FB
:1059B000FFF758FA044600284BD1296907F1100077
:1059C000FFF728FA0446002843D1386920B1FFF7D1
:1059D00049FA0446002839D1696907F11400FFF734
:1059E00019FA044690BB786920B10121FFF748FA03
:1059F000044640BB01AA0421384600F0D9F8044609
:105A000008BB01AA0521384600F0D2F80446D0B9F7
:105A100001AA0621384600F0CBF8044698B901AA3D
:105A20000721384600F0C4F8044660B92146022236
:105A300038460134FFF752FF20B9042CF6D1376005
:105A4000044696E704467869FFF7FEF93869FFF7E0
:105A5000FBF9F868FFF7F8F9B868FFF7F5F9786827
:105A6000FFF7EAFB82E76FF00B0482E770B5F8B14D
:105A700006460025294602223046FFF72FFF013552
:105A8000044698B9042DF5D17068FFF7D5FBB068CE
:105A9000FFF7DAF9F068FFF7D7F93069FFF7D4F9C3
:105AA0007069FFF7D1F9304614F0D6FE204670BD7C
:105AB0006FF01204FAE700BF00B5002914BF0022FE
:105AC000022290F800C08646C2F107021F204CFA5D
:105AD00002F101F00101B1EB101F4FEA400303F0A6
